:020000040800F2
:10000000A007002045010008271C00088D140008E7
:10001000251C000835020008611E000800000000D1
:100020000000000000000000000000002B1C000881
:100030003702000800000000291C00082D1C0008E1
:100040005F0100085F0100085F0100085F01000810
:100050005F0100085F0100085F0100085F01000800
:100060005F0100085F0100085F0100085F010008F0
:100070005F0100085F0100085F0100085F010008E0
:100080005F0100085F0100085F0100085F010008D0
:100090005F0100085F0100085F01000855050008C6
:1000A0005F0100085F0100085F0100085F010008B0
:1000B0005F0100085F0100085F0100085F010008A0
:1000C0005F0100085F0100085F0100085F01000890
:1000D0005F0100085F010008551E00085F0100086D
:1000E0004D0500085F0100085F0100085F0100087E
:1000F0005F0100085F0100085F0100085F01000860
:100100005F0100085F0100085F0100085F0100084F
:100110005F0100085F0100085F0100085F0100083F
:100120005F0100085F0100085F0100085F0100082F
:10013000DFF80CD000F06CF800480047C920000838
:10014000A00700200648804706480047FEE7FEE774
:10015000FEE7FEE7FEE7FEE7FEE7FEE7FEE7FEE777
:100160007F1C00083101000840EA01039B0703D00F
:1001700009E008C9121F08C0042AFAD203E011F8E6
:10018000013B00F8013B521EF9D27047D2B201E0A8
:1001900000F8012B491EFBD270470022F6E710B58C
:1001A00013460A4604461946FFF7F0FF204610BDE5
:1001B00030B505462A460B4612F8010B13F8014BE1
:1001C00008B1A042F8D01CB1002802D06D1CF1E7A4
:1001D000284630BD421C10F8011B0029FBD1801AB3
:1001E000704730B50B46014600202022012409E06B
:1001F00021FA02F59D4205D303FA02F5491B04FAE0
:1002000002F52844151EA2F10102F1DC30BD000008
:10021000064C074D06E0E06840F0010394E8070053
:1002200098471034AC42F6D3FFF786FF0821000848
:1002300028210008FEE7704770B50C4605464FF4CC
:1002400080710748FFF7A9FF064900202246087081
:100250002946BDE870404FF6FF73034801F0BCB873
:100260001C010020010000205C03002010B50446A2
:100270004FF480710948FFF790FF0949002008708A
:10028000084806E0026851600168641C0A6852066A
:10029000FCD521780029F5D110BD00001C010020FB
:1002A000010000205C03002070B505244FF40075A8
:1002B0000EE029460948FFF770FF09A0FFF7D6FFB7
:1002C000C82209A1054800F0F2F908B1012070BD6B
:1002D0002046641EE4B2ECD270BD00001C01002078
:1002E00041540D0A000000004F4B00002DE9F0477B
:1002F0008846814605244FF400750CE029461A48CB
:10030000FFF74BFF19A0FFF7B1FFC8221CA1164849
:1003100000F0CDF910B9641EE4B2EFD2ECB10124C3
:1003200026024FF4FA5731461648FFF736FF2946A2
:100330000D48FFF732FF43464A4613A1114801F02A
:10034000A1FD1048FFF792FF3A460DA1064800F0C4
:10035000AEF920B10120BDE8F0870020FBE7204680
:10036000641EE4B2DFD2F6E71C01002041542B43A7
:10037000574D4F44455F4355523D310D0A00000033
:100380004F4B00001C00002041542B43574A415062
:100390005F4355523D222573222C222573220D0ADC
:1003A000000000002DE9F84F16468946824600F00D
:1003B0007DF84FF4FA7000F029FA02242502E701D3
:1003C0004FF4FA5817E039462348FFF7E6FE29466E
:1003D0002248FFF7E2FE4B46524621A11E480096F6
:1003E00001F050FD1C48FFF741FF424623A11B4886
:1003F00000F05DF910B9641EE4B2E4D27CB10124CE
:1004000029461648FFF7C9FE1EA0FFF72FFFC82296
:1004100020A1124800F04BF920B1012407E0002090
:10042000BDE8F88F2046641EE4B2E9D2F8E7294619
:100430000A48FFF7B2FE18A0FFF718FFC8221AA15A
:10044000064800F034F908B10120E9E72046641EAF
:10045000E4B2ECD2E4E700001C0000201C01002004
:1004600041542B43495053544152543D2225732249
:100470002C222573222C25640D0A0000434F4E4E7A
:100480004543540041542B4349504D4F44453D3161
:100490000D0A00004F4B000041542B434950534577
:1004A0004E440D0A000000003E00000010B507A0F9
:1004B000FFF7DCFE322000F0A9F904A0FFF7D6FE1A
:1004C000BDE81040322000F0A1B900002B2B2B001A
:1004D00070B54FF480711548FFF75FFE4FF400755B
:1004E00029461348FFF759FEFFF7E0FF4FF4FA746F
:1004F000204600F08BF90FA0FFF7B8FE4FF44870CC
:1005000000F084F9FFF7D0FE00280ED029460848F5
:10051000FFF743FE0AA0FFF7A9FE22460AA10448FE
:1005200000F0C5F8002800D0012070BD1C0000209C
:100530001C01002041542B5253540D0A00000000AE
:10054000415445300D0A00004F4B00004FF400406D
:1005500000F078B9202000F075B900000446052CA1
:1005600016D2DFE804F003050F11130009A000E024
:1005700012A001F077FC1BA001F074FCC82000F071
:1005800045F9ECE71EA0F4E729A0F2E734A0F0E774
:1005900040A0EEE7A1BE6D61696EA1BF6572726F8A
:1005A000723A45535038323636B3F5CABCBBAFCA7F
:1005B000A7B0DCA3A10D0A0D0A000000A1BE6D6169
:1005C000696EA1BF6572726F723A45535038323608
:1005D00036C1ACBDD3C8C8B5E3CAA7B0DCA3A10D72
:1005E0000A0D0A00A1BE6D61696EA1BF696E666FDA
:1005F0003AC7EBD6D8C6F4BFAAB7A2B0E50D0A0039
:10060000A1BE6D61696EA1BF6572726F723A45538A
:100610005038323636C1ACBDD3B0A2C0EFD4C6B765
:10062000FECEF1C6F7CAA7B0DCA3A10D0A0D0A00E1
:10063000A1BE6D61696EA1BF6572726F723A45535A
:100640005038323636B0A2C0EFD4C64D515454B5EE
:10065000C7C2BDCAA7B0DCA3A10D0A0D0A000000E5
:10066000A1BE6D61696EA1BF6572726F723A45532A
:100670005038323636B0A2C0EFD4C64D515454B6BD
:10068000A9D4C4D6F7CCE2CAA7B0DCA3A10D0A0D49
:100690000A000000A1BE6D61696EA1BF696E666F40
:1006A0003A4E6F74696E670D0A0D0A00704770B597
:1006B00006460A20B2FBF0F40D4602E00A2000F0E4
:1006C000A5F829463046FFF773FD10B9641EA4B2A1
:1006D000F4D20CB1012070BD002070BD2DE9F05F97
:1006E00090F821100024022903D004218163012401
:1006F00085E001680A6822F00E020A6001680A6853
:1007000022F001020A603F4E3E4FB215DFF8F4C0FE
:10071000DFF8F090DFF8ECA0DFF8E8B0DFF8E4E015
:100720000168783F13011502ACF1640CA9F150097E
:10073000AAF13C0AABF1280BAEF1140E4FF480186D
:10074000B14227D9B9420ED0614512D049451DD0DA
:10075000514518D0594518D0714501D1424615E090
:10076000294EB14201D1012210E0274E1436B14288
:1007700001D110220AE0244E2836B14206D0224A86
:100780003C32914201D11A4600E02A461E49091F17
:100790000A602BE0B94213D0614517D0494522D0F9
:1007A00051451DD059451DD0714501D142461AE031
:1007B000B14202D14FF0807215E0134EB14201D127
:1007C000012210E0104E1436B14201D110220AE08D
:1007D0000D4E2836B14206D00B4A3C32914201D12F
:1007E0001A4600E02A46074980394A60012180F80C
:1007F0002110002180F82010416B01B1884720466C
:10080000BDE8F09F800002400804024070B5044635
:1008100000F026F90546601C02D004480078044424
:1008200000F01EF9401BA042FAD370BD0400002066
:10083000202804D0B0F5004F03D100F09DBF00F098
:1008400027BE7047044910B50A68024202D008600A
:10085000FFF7EEFF10BD0000140401402DE9F84F32
:10086000DFF8C891002409F1040A0AF1040B2346B9
:100870000F270BF1040ED1E00125A54006EA050281
:10088000AA4276D1DFF8A8C14E68A6EB0C086645EF
:100890002BD00DDC032E34D005DC36B3012E19D05D
:1008A000022E2FD11BE0112E16D0122E2AD119E0C4
:1008B000B8F5881F19D006DCB8F5803F15D0B8F51B
:1008C000801F1FD111E0B8F5001F0ED0B8F5041F2E
:1008D00018D10AE0CB6815E0CB681B1D12E0CB688D
:1008E00008330FE0CB680C330CE08B682BB1012B85
:1008F0004FF0080303D0456104E0042302E00561E2
:1009000000E00023FF2A01D8064601E000F10406BA
:100910004FEA840501D9A5F12005D6F8008007FA31
:1009200005FC28EA0C0803FA05F548EA0508C6F8AC
:1009300000804D68ED0070D53E4DAE6946F0010671
:10094000AE61AD6924F0030605F0010500953A4D4E
:1009500006EB050CDCF80850A607360F07FA06F878
:1009600025EA0805DFF8D480404503D14FF00008A0
:1009700025E052E0DFF8C880404502D14FF0010881
:100980001DE0DFF8C080404502D14FF0020816E0BC
:10099000DFF8B480404502D14FF003080FE0DFF8E4
:1009A000AC80404502D14FF0040808E0DFF8A08099
:1009B000404502D14FF0050801E04FF0060808FA63
:1009C00006F848EA0508CCF808804D68D9F80060B8
:1009D000ED034D4601D5164300E096432E604D6869
:1009E000DAF80060AD03554601D5164300E09643A2
:1009F0002E604D68DBF80060ED025D4601D51643C0
:100A000000E096432E604D68DEF80060AD0275464A
:100A100001D5164300E096432E60641C0A68164612
:100A2000E2407FF429AFBDE8F88F000000040140E8
:100A300000001110001002400000014000080140B9
:100A4000000C01400010014000140140001801405A
:100A5000001C01400AB1016170470904FBE7000076
:100A60000148806870470000040000200248816847
:100A7000027811448160704704000020074810B5D7
:100A8000016841F010010160032000F075F80020BA
:100A900000F006F800F024F8002010BD002002400D
:100AA00070B50D4D04464FF47A712878B1FBF0F023
:100AB0000A490968B1FBF0F000F0ECFA48B9102CD3
:100AC00007D200222146501E00F036F800206C604C
:100AD00070BD012070BD0000040000201000002047
:100AE0000C4808B5816941F001018161816901F01B
:100AF00001010091C16941F08051C161C06900F0FC
:100B0000805000900448416821F0E06141F000719C
:100B1000416008BD0010024000000140002809DBD0
:100B200000F01F02012191404009800000F1E02007
:100B3000C0F8001170470000F0B40E4B1B680C4663
:100B4000C3F30223C3F10705042D00D90425191DA1
:100B5000072901D2002300E0DB1E012606FA05F179
:100B6000491E214099409E40761E16403143F0BCFC
:100B700001F09CB90CED00E0064900F0070208689E
:100B80004FF6FF03184040EA0220034A1043086072
:100B9000704700000CED00E00000FA052DE9F04779
:100BA0000F46050061D0434E306800F00700B842A0
:100BB00009D2306820F0070038433060306800F018
:100BC0000700B84251D128683B4C810712D5400735
:100BD00003D5606840F4E06060602878000703D5C2
:100BE000606840F4605060606068A96820F0F000C0
:100BF000084360602878C00728D06868012810D0B2
:100C00002168022810D0890700292EDA616821F0B6
:100C1000030101436160FFF723FF804641F28839F9
:100C20000DE021688903EFE78901EDE7FFF718FF81
:100C3000A0EB0801494502D90320BDE8F0876068B0
:100C4000696800F00C00B0EB810FEFD1306800F064
:100C50000700B8420BD9306820F0070038433060F5
:100C6000306800F00700B84201D00120E5E728789D
:100C7000400705D56068E96820F4E06008436060DB
:100C80002878000706D56068296920F4605040EA9A
:100C9000C100606000F038F86168084AC1F30311D0
:100CA000515CC8400649086006480068FFF7F8FE36
:100CB0000020C2E70020024000100240F02000089F
:100CC0001000002008000020044805490068496819
:100CD000044AC1F30221515CC84070471000002053
:100CE00000100240002100080448054900684968D6
:100CF000044AC1F3C221515CC84070471000002073
:100D0000001002400021000812A185B00FC98DE833
:100D10000F0014A0144A006804905168134801F0B1
:100D20000C03042B10D0082B0ED1C1F38343C9034D
:100D30001DF803000AD5516804AAC1F34041515C73
:100D40000A4A5043B0FBF1F005B0704708494843E8
:100D5000FAE7000002030405060708090A0B0C0D58
:100D60000E0F1010010200000010024000127A0065
:100D700000093D002DE9F84F040070D02078C04DE7
:100D8000C00749D06868C0F38100012807D06868AF
:100D9000C0F38100022809D16868C00306D528681D
:100DA000800339D560680028E7D035E06068B0F589
:100DB000803F0BD010B1B0F5A02F11D0286820F4DF
:100DC00080302860286820F4802002E0286840F401
:100DD00080302860606890B1FFF742FE06460AE066
:100DE000286840F480202860F0E700BFFFF738FE55
:100DF000801B642873D828688003F7D50CE0FFF7C0
:100E00002FFE064605E000BFFFF72AFE801B642880
:100E1000F0D828688003F7D420789A4E80074FF0E6
:100E200001094FF0000839D5686810F00C0F07D0A1
:100E30006868C0F38100022809D16868C00306D43D
:100E40002868800714D52069012808D110E020699E
:100E5000B0B1C6F80090FFF703FE074605E00AE1CF
:100E6000FFF7FEFDC01B0228C4D828688007F7D50D
:100E70002868616920F0F80040EAC10028600DE0B0
:100E8000C6F80080FFF7ECFD074604E0FFF7E8FD39
:100E9000C01B022823D828688007F7D420780007D1
:100EA0002CD57948A169D9B1C0F80090FFF7D8FDD9
:100EB000074604E0FFF7D4FDC01B02280FD8686A7C
:100EC0008007F7D571484FF4FA510068B0FBF1F094
:100ED000009000BF0098411E0091FAD20EE080E021
:100EE000C0F80080FFF7BCFD074604E0FFF7B8FD3F
:100EF000C01B022875D8686A8007F7D4207840079D
:100F000060D5E8690027C00008D4E86940F0805047
:100F1000E861E869012700F0805000905C480168B2
:100F2000C90513D40168834641F480710160FFF75D
:100F300097FD824606E000BFFFF792FDA0EB0A0096
:100F400064284ED8DBF80000C005F5D5E06801281C
:100F50000AD008B1052813D0286A20F001002862C1
:100F6000286A20F0040002E0286A40F001002862AC
:100F7000E06841F2883B98B1FFF772FD82460BE0D2
:100F8000286A40F004002862EEE700BFFFF768FD22
:100F9000A0EB0A0159455AD8286A8007F6D50CE01B
:100FA000FFF75EFD824605E0FFF75AFDA0EB0A0160
:100FB00059454CD8286A8007F6D41FB1E86920F05B
:100FC0008050E861E06988B36968C1F38101022952
:100FD00044D00228C6F8608004D0FFF741FD0446E3
:100FE00038E034E0FFF73CFD074604E0FFF738FD4A
:100FF000C01B02282BD828688001F7D4206AB0F5DE
:10100000803F05D16868A16820F40030084368601B
:10101000D4E908010843696821F474110843686041
:10102000C6F86090FFF71CFD044606E025E000BF0F
:10103000FFF716FD001B022809D828688001F7D5A4
:101040001BE000BFFFF70CFD001B022802D90320A4
:10105000BDE8F88F28688001F4D40EE00128F7D0AD
:101060006868226A00F48031914204D1616A00F418
:101070007010884201D00120EAE70020E8E7000074
:101080000010024000004242800442421000002052
:101090000070004010B5401EB0F1807F01D30120E8
:1010A00010BD4FF0E02460610F21601700F0FEFEDC
:1010B0000020A06107202061002010BD70470000C3
:1010C00070B5026804461068D168536910F00F0FBC
:1010D00052D003F0010501F490762E435FD0C20791
:1010E00005D0CA0503D5E26B42F00102E263420774
:1010F00005D5DA0703D0E26B42F00202E263820711
:1011000005D5DA0703D0E26B42F00402E26302077E
:1011100007D501F020022A4303D0E26B42F0080217
:10112000E263E26B002A33D0800604D5880602D53C
:10113000204600F0BBFD20684069E16BC0F38010E1
:10114000090700D428B3204600F0A2FD20684169B9
:1011500049061AD5416921F040014161606BA0B197
:101160002D494163606BFFF7B9FA002810D0606B1E
:10117000416BBDE870400847830610D58B060ED53D
:101180002046BDE8704000F091BD2046FFF796FF75
:1011900070BD2046FFF792FF0020E06370BD03069C
:1011A0002BD50B0629D594F839002128F6D1A06853
:1011B000B0F5805F01D12069B0B1206A411C216285
:1011C000216800784860E08C401E0004000CE08438
:1011D000E4D12068C16821F08001C1602068C16845
:1011E00041F04001C16070BD206A0088C0F3080072
:1011F0005060206A801C2062E5E74006F3D548066F
:10120000F1D5D168204621F04001D160202184F839
:10121000391000F03AF970BD811C000870B5040067
:1012200004D094F83900002510B106E0012070BD0B
:1012300084F83850204600F023F8242084F8390040
:101240002068C16821F40051C160204600F074FD9F
:101250002068016921F4904101612068416921F011
:101260002A0141612068C16841F40051C160E56311
:10127000202084F8390084F83A00002070BD000076
:1012800070B586B0002400940194029403942B4E10
:1012900003682B49022003222A4DB34221D18B69D6
:1012A00043F480438B618B6903F4804304938B691F
:1012B00043F004038B618969039201F004010491F6
:1012C0000102CDE9001069462846FFF7C7FA281544
:1012D000CDE90004694628460294FFF7BFFA06B03C
:1012E00070BD194EB342FAD1CB6943F40033CB61E0
:1012F000CB6903F4003304938B6943F004038B61DF
:101300008969039201F0040104910421CDE90010E0
:1013100069462846FFF7A2FA0820CDE9000469468D
:1013200028460294FFF79AFA002203212620FFF7AD
:1013300003FC2620FFF7F2FBD1E700000038014054
:1013400000100240000801400044004090F83A308C
:10135000202B22D1F9B1F2B190F83830012B1CD0FA
:1013600081628285C2850021C163222280F83A20F1
:1013700080F838100168CA6842F48072CA60016857
:101380004A6942F001024A610068C16841F02001E7
:10139000C1600020704701207047022070470000A4
:1013A0000068084988420CD107480949074B027870
:1013B00008781A54401C0870012203490548FFF7B9
:1013C000C5BF704700440040000000201C01002001
:1013D000010000205C0300202DE9F843044690F84A
:1013E00039001F4616460D4620284CD1C5B1BEB166
:1013F00094F83800012846D0012084F838004FF0D6
:101400000008C4F83C80212084F83900FFF728FB4D
:10141000A6848146E684A068B0F5805F03D004E02E
:101420000120BDE8F883206928B12E465FF0000551
:1014300084F838800EE00026FAE78021204600F08C
:10144000D7FCA0B9AEB116F8010B21684860E08C5A
:10145000401EE084E08C4B464FF0000200970028CD
:10146000EBD14FF04001204600F0C2FC30B1032028
:10147000D7E735F8020BC0F30800E6E7202084F830
:1014800039000020CDE70220CBE77047FEE70000DF
:101490002DE9F0473BA000F0E5FCFFF719F8002824
:1014A00038D040A000F0DEFC48A14BA0FEF71EFFA4
:1014B00000282AD04AA000F0D5FC40F25B7252A16D
:1014C0005EA0FEF76FFF002821D05DA000F0CAFCEF
:1014D00067A272A176A000F063F9002819D07EA05F
:1014E00000F0C0FC0122002187A000F05DFA002876
:1014F00045D08CA000F0B6FC974D984F984E4FF415
:1015000080784FF47A7900240BE0012002E0022079
:1015100000E00320FFF722F82A5D214691A000F0A9
:10152000A1FC2046641C3178A4B28842F4D395F81B
:10153000300031280AD1002241463846FFF78AFAA6
:101540008AA000F08FFC4846FFF760F995F830005C
:1015500030280AD1012241463846FFF77BFA83A0A2
:1015600000F080FC4846FFF751F941467A48FEF703
:1015700014FE002030704846FFF748F9C3E7BDE885
:10158000F0870000A1BE6D61696EA1BF64656275E0
:10159000673ACED2B0B4CFC2C1CB4B45595F300D04
:1015A0000A0D0A00A1BE6D61696EA1BF696E666F0A
:1015B0003A45535038323636B3F5CABCBBAFB3C91F
:1015C000B9A6A3A10D0A0D0A000000006C69616EA6
:1015D00067303532360000004C49414E470000006C
:1015E000A1BE6D61696EA1BF696E666F3A455350C9
:1015F00038323636C1ACBDD3C8C8B5E3B3C9B9A615
:10160000A3A10D0A0D0A00006131364F4B6B366401
:101610005479612E696F742D61732D6D7174742E00
:10162000636E2D7368616E676861692E616C69799C
:10163000756E63732E636F6D00000000544350009D
:10164000A1BE6D61696EA1BF696E666F3A45535068
:1016500038323636C1ACBDD3B0A2C0EFD4C6B7FE67
:10166000CEF1C6F7B3C9B9A6A3A10D0A0D0A0000B1
:1016700030343632394437343036344443384544D4
:1016800035354345373635363732323439303039EF
:1016900034373035433338440000000053414D4166
:1016A000266131364F4B6B3664547961000000007F
:1016B00031323334357C7365637572656D6F646583
:1016C0003D332C7369676E6D6574686F643D686D3A
:1016D0006163736861317C00A1BE6D61696EA1BFF9
:1016E000696E666F3A45535038323636B0A2C0EF55
:1016F000D4C64D515454B5C7C2BDB3C9B9A6A3A1F0
:101700000D0A0D0A000000002F6131364F4B6B3679
:10171000645479612F53414D412F757365722F6762
:1017200065740000A1BE6D61696EA1BF696E666FD0
:101730003A45535038323636B0A2C0EFD4C64D5178
:101740005454B6A9D4C4D6F7CCE2B3C9B9A6A3A160
:101750000D0A0D0A000000001C01002000080140D5
:101760000100002025753A25630000004920474FFD
:10177000542049542100000001A000F073BB000078
:10178000A1BE6D61696EA1BF64656275673ACED214
:10179000B0B4CFC2C1CB4B45595F310D0A0D0A0021
:1017A0002DE9F74F92468346FEF714FD0746019850
:1017B000FEF710FD06465046FEF70CFD764C002263
:1017C00005466280B819618828444FF0100C734BAD
:1017D00003EB0108491C618088F800C01030C11774
:1017E00000EB516121F07F0CA0EB0C0000F0FF0C2E
:1017F000C811002802DD00BF4CF0800C618803EBAB
:10180000010801F10101618088F800C0E7DC61880E
:10181000994618460B4401F1010161801A706188F4
:101820004FF0040800EB010301F10101618083F82E
:10183000008061884FF04D0300EB010C01F10101C4
:1018400061808CF8003061884FF0510300EB010C8F
:1018500001F1010161808CF8003061884FF0540380
:1018600000EB010C01F1010161808CF8003061880E
:1018700000EB010C01F1010161808CF800306188FE
:1018800000EB010301F10101618083F800806188B0
:101890004FF0C20300EB010C01F1010161808CF8F3
:1018A0000030618800EB010301F1010161801A70D1
:1018B00061884FF03C0200EB010301F101016180FE
:1018C0001A7061884FEA172200EB010301F1010150
:1018D00061801A70618800EB010201F101016180F1
:1018E000177061883A4609EB01005946FEF73CFC47
:1018F000608838446080002E15DD6088320A09EB6C
:101900000003401C60801A70608809EB0002401CD4
:10191000608016706088324648440199FEF724FCC6
:10192000608830446080002D15DD60882A0A09EB4C
:101930000003401C60801A70608809EB0002401CA4
:101940006080157060882A4648445146FEF70CFCBA
:10195000608828446080124F01264FF40078414689
:101960000F48FEF71AFC61880C4800F01BF81D2593
:101970003878202802D1787802280BD06420FEF72E
:1019800045FF6D1EEDB2F3D23046761EF6B2E6D2BA
:10199000BDE8FE8F0120FBE7140000201C000020A2
:1019A0001C010020FEF748BC2DE9F047474C4FF0E2
:1019B0000008174689468246A4F80280FEF70AFC12
:1019C000434D0646002F02D04FF0010001E04FF0DA
:1019D0000000304400F1040002D04FF0820201E028
:1019E0004FF0A202618805EB010301F10101618062
:1019F00083F800204FEAE07100EB516121F07F0293
:101A0000A0EB0200C2B24FEAE110002802DD00BFE5
:101A100042F08002618805EB010301F10101618060
:101A20001A70E7DC608805EB000100F101006080BE
:101A300081F8008060884FF0010105EB000200F1A1
:101A400001006080117060884FEA162105EB0002EA
:101A500000F1010060801170608805EB000100F169
:101A6000010060800E706088324628445146FEF7BF
:101A70007BFB6088304460802FB160882A18401C4E
:101A8000608082F80090134F01254FF400784146A2
:101A90001048FEF782FB61880D48FFF783FF1D2683
:101AA0003878902802D17878032809D06420FEF78E
:101AB000ADFE761EF6B2F3D26D1EEDB2E7D215B1D1
:101AC0000120BDE8F0870020FBE7000014000020A3
:101AD0001C0000201C0100202DE9F04186B00024EC
:101AE0002F4802940394816941F02001816181694A
:101AF00001F020010491816941F004018161816953
:101B000001F004010491816941F010018161806953
:101B1000244D00F0100004902020CDE90005694616
:101B20002148FEF79BFE4FF40040CDE900051F4F12
:101B3000694602943846FEF791FE002205211720DF
:101B4000FEF7FAFF1720FEF7E9FF00220521282003
:101B5000FEF7F2FF2820FEF7E1FF012215022946D9
:101B60003846FEF777FFDFF848800122042140461F
:101B7000FEF770FF0095022601250396CDE901547A
:101B800069463846FEF76AFE0420CDE90005CDE936
:101B9000024669464046FEF761FE06B0BDE8F081A8
:101BA0000010024000002110001001400008014018
:101BB000001401400C4810B50A4901604FF4E131AE
:101BC0004160002181600C22C160C0E90412816182
:101BD000C161FFF723FB002803D0BDE81040FEF7EA
:101BE00065BD10BD003801401C0300200C4810B535
:101BF0000A4901604FF4E1314160002181600C220B
:101C0000C160C0E904128161C161FFF707FB0028D0
:101C100003D0BDE81040FEF749BD10BD00440040B0
:101C20005C030020FEE7704770477047FEF71EBF59
:101C300030B58FB028216846FEF7AFFA14210AA804
:101C4000FEF7ABFA01210804CDE90010002402944C
:101C500002250491CDE907504FF4E0100990684641
:101C6000FFF788F80F20CDE90A056802CDE90C409E
:101C700002210AA80E94FEF791FF0FB030BD704705
:101C800010B5406A0021C185C184FFF717FA10BD65
:101C90000168CA6822F49072CA6001684A6922F039
:101CA00001024A61202180F83A10704710B590F87F
:101CB0003A10222901D0022010BD82684FF48053CF
:101CC0009A4201D1016921B1816A9A421BD04AB17D
:101CD0000AE00268816A5268C2F308020A80816AD7
:101CE000891C08E0026972B10268526802F07F0242
:101CF0000A70816A491C8162C18D491E0904090C60
:101D0000C18503D016E002685268F1E70168CA682D
:101D100022F02002CA600168CA6822F48072CA6098
:101D200001684A6922F001024A61202180F83A10D4
:101D3000FFF736FB002010BD70B50446006801694E
:101D4000E26821F44051114301612169A068084310
:101D5000616908432168CA6841F20C639A430243EF
:101D6000CA6020684169A26921F440711143416150
:101D70001E492068884202D1FEF7B6FF01E0FEF757
:101D8000A3FF00EBC00101EB00126068642180003A
:101D9000B2FBF0F3B3FBF1F36FF018067343B2FB41
:101DA000F0F5B2FBF0F605EB8305322303EB0515E6
:101DB000B5FBF1F5B6FBF1F605F0F00505EB061500
:101DC000B2FBF0F6B2FBF0F0B0FBF1F06FF01802EE
:101DD000504306EB800003EB0010B0FBF1F02168EC
:101DE00000F00F002844886070BD000000380140FA
:101DF0002DE9F041984617460E460446069D1DE023
:101E0000681C1BD02DB1FEF72BFEA0EB0800A842EA
:101E100014D92068C16821F4D071C160206841697B
:101E200021F001014161202084F8390084F83A0052
:101E3000002084F838000320BDE8F08120680068A5
:101E400036EA000004D00020B842D9D00020F3E7E1
:101E50000120F9E70148FFF733B900005C030020D7
:101E6000FEE700000FB4054B10B503A9044A029821
:101E700000F03CF810BC5DF814FB0000B120000835
:101E8000180000200FB4084B10B504A902AA03984B
:101E900000F02CF8044602A9002000F003F92046C7
:101EA00010BC5DF814FB0000A52000080907090E0E
:101EB000002804DB00F1E02080F80014704700F0F7
:101EC0000F0000F1E02080F8141D704702E008C800
:101ED000121F08C1002AFAD170477047002001E0A4
:101EE00001C1121F002AFBD1704700002DE9FF4FEE
:101EF0008BB09A460F460546002606E025280BD0F3
:101F000052460D9990476D1C761C28780028F5D113
:101F10000FB03046BDE8F08F0024A0460122604992
:101F200000E0044315F8013F203B02FA03F00842A9
:101F3000F7D128782E2817D115F8010F44F00404A2
:101F40002A280ED06FF02F022878A0F1300109293D
:101F50000AD808EB880102EB410100EB01086D1C77
:101F6000F2E757F8048B6D1C287869283ED006DC10
:101F70000028CDD063280BD0642804D136E0732824
:101F800010D075284BD052460D999047761C85E0AD
:101F900017F8040B8DF8000000208DF80100E946C9
:101FA000012003E057F8049B4FF0FF3061074FF02A
:101FB000000401D40AE0641C44450DDA8442FADBD3
:101FC00019F804100029F6D106E0641C8442FCDBF9
:101FD00019F804100029F8D1264404E019F8010B7F
:101FE00052460D999047641EF8D257E001CF4FF04A
:101FF0000A0B002802DA40422D2102E0210504D517
:102000002B218DF82410012103E0E10705D02021C8
:10201000F7E70DF1200908910CE00021F9E701CF65
:102020004FF00A0BF9E75946FEF7DBF801F13002F1
:1020300009F8012D0028F6D1ADEB090000F1200BC5
:10204000600701D44FF00108D84502DDA8EB0B0072
:1020500000E000208046002406E009A85246005D0A
:102060000D999047641C761C08988442F5DB04E0C7
:10207000302052460D999047761CB8F10001A8F126
:102080000108F5DC05E019F8010B52460D9990475F
:10209000761CBBF10001ABF1010BF4DC6D1C34E7E5
:1020A000092801000A68531C0B601070704700007B
:1020B00013B54FF6FF73012269460248FFF78CF90A
:1020C00000981CBD1C030020FEF7D8FCFFF7B0FDF4
:1020D000FFF702FDFFF76EFDFFF788FD01220249C1
:1020E0000248FFF733F9FEE7000000205C03002000
:1020F00000000000000000000102030406070809B8
:102100000000000001020304282100080000002054
:102110001C000000CC1E0008442100081C00002008
:1021200084070000DC1E0008000000000100000021
:1021300010000000000000000024F4000000000077
:04214000000000009B
:0400000508000131BD
:00000001FF
